{
  "_format": "hh-sol-artifact-1",
  "contractName": "RTI",
  "sourceName": "contracts/RTI.sol",
  "abi": [
    {
      "inputs": [],
      "stateMutability": "nonpayable",
      "type": "constructor"
    },
    {
      "anonymous": false,
      "inputs": [
        {
          "indexed": true,
          "internalType": "uint256",
          "name": "id",
          "type": "uint256"
        },
        {
          "indexed": true,
          "internalType": "address",
          "name": "citizen",
          "type": "address"
        },
        {
          "indexed": false,
          "internalType": "string",
          "name": "title",
          "type": "string"
        },
        {
          "indexed": false,
          "internalType": "uint256",
          "name": "bounty",
          "type": "uint256"
        },
        {
          "indexed": false,
          "internalType": "uint256",
          "name": "deadline",
          "type": "uint256"
        }
      ],
      "name": "RTICreated",
      "type": "event"
    },
    {
      "anonymous": false,
      "inputs": [
        {
          "indexed": true,
          "internalType": "uint256",
          "name": "id",
          "type": "uint256"
        },
        {
          "indexed": true,
          "internalType": "address",
          "name": "citizen",
          "type": "address"
        }
      ],
      "name": "RTIRefunded",
      "type": "event"
    },
    {
      "anonymous": false,
      "inputs": [
        {
          "indexed": true,
          "internalType": "uint256",
          "name": "id",
          "type": "uint256"
        },
        {
          "indexed": true,
          "internalType": "address",
          "name": "officer",
          "type": "address"
        },
        {
          "indexed": false,
          "internalType": "string",
          "name": "responseText",
          "type": "string"
        }
      ],
      "name": "RTIResponded",
      "type": "event"
    },
    {
      "anonymous": false,
      "inputs": [
        {
          "indexed": true,
          "internalType": "uint256",
          "name": "id",
          "type": "uint256"
        }
      ],
      "name": "RTIVerified",
      "type": "event"
    },
    {
      "inputs": [],
      "name": "admin",
      "outputs": [
        {
          "internalType": "address",
          "name": "",
          "type": "address"
        }
      ],
      "stateMutability": "view",
      "type": "function"
    },
    {
      "inputs": [
        {
          "internalType": "string",
          "name": "title",
          "type": "string"
        },
        {
          "internalType": "string",
          "name": "description",
          "type": "string"
        },
        {
          "internalType": "uint256",
          "name": "deadline",
          "type": "uint256"
        }
      ],
      "name": "createRTI",
      "outputs": [],
      "stateMutability": "payable",
      "type": "function"
    },
    {
      "inputs": [],
      "name": "getRTICount",
      "outputs": [
        {
          "internalType": "uint256",
          "name": "",
          "type": "uint256"
        }
      ],
      "stateMutability": "view",
      "type": "function"
    },
    {
      "inputs": [
        {
          "internalType": "uint256",
          "name": "rtiId",
          "type": "uint256"
        }
      ],
      "name": "getRTIDetails",
      "outputs": [
        {
          "internalType": "address",
          "name": "citizen",
          "type": "address"
        },
        {
          "internalType": "string",
          "name": "title",
          "type": "string"
        },
        {
          "internalType": "string",
          "name": "description",
          "type": "string"
        },
        {
          "internalType": "uint256",
          "name": "bounty",
          "type": "uint256"
        },
        {
          "internalType": "uint256",
          "name": "deadline",
          "type": "uint256"
        },
        {
          "internalType": "enum RTI.Status",
          "name": "status",
          "type": "uint8"
        },
        {
          "internalType": "string",
          "name": "responseText",
          "type": "string"
        },
        {
          "internalType": "address",
          "name": "respondingOfficer",
          "type": "address"
        }
      ],
      "stateMutability": "view",
      "type": "function"
    },
    {
      "inputs": [
        {
          "internalType": "uint256",
          "name": "",
          "type": "uint256"
        }
      ],
      "name": "isVerified",
      "outputs": [
        {
          "internalType": "bool",
          "name": "",
          "type": "bool"
        }
      ],
      "stateMutability": "view",
      "type": "function"
    },
    {
      "inputs": [
        {
          "internalType": "uint256",
          "name": "rtiId",
          "type": "uint256"
        }
      ],
      "name": "refundBounty",
      "outputs": [],
      "stateMutability": "nonpayable",
      "type": "function"
    },
    {
      "inputs": [
        {
          "internalType": "uint256",
          "name": "rtiId",
          "type": "uint256"
        },
        {
          "internalType": "string",
          "name": "reason",
          "type": "string"
        }
      ],
      "name": "rejectRequest",
      "outputs": [],
      "stateMutability": "nonpayable",
      "type": "function"
    },
    {
      "inputs": [
        {
          "internalType": "uint256",
          "name": "",
          "type": "uint256"
        }
      ],
      "name": "rtiRequests",
      "outputs": [
        {
          "internalType": "address",
          "name": "citizen",
          "type": "address"
        },
        {
          "internalType": "string",
          "name": "title",
          "type": "string"
        },
        {
          "internalType": "string",
          "name": "description",
          "type": "string"
        },
        {
          "internalType": "uint256",
          "name": "bounty",
          "type": "uint256"
        },
        {
          "internalType": "uint256",
          "name": "deadline",
          "type": "uint256"
        },
        {
          "internalType": "enum RTI.Status",
          "name": "status",
          "type": "uint8"
        },
        {
          "internalType": "string",
          "name": "responseText",
          "type": "string"
        },
        {
          "internalType": "address",
          "name": "respondingOfficer",
          "type": "address"
        }
      ],
      "stateMutability": "view",
      "type": "function"
    },
    {
      "inputs": [
        {
          "internalType": "uint256",
          "name": "rtiId",
          "type": "uint256"
        },
        {
          "internalType": "string",
          "name": "responseText",
          "type": "string"
        }
      ],
      "name": "submitResponse",
      "outputs": [],
      "stateMutability": "nonpayable",
      "type": "function"
    },
    {
      "inputs": [
        {
          "internalType": "uint256",
          "name": "rtiId",
          "type": "uint256"
        }
      ],
      "name": "verifyAndRelease",
      "outputs": [],
      "stateMutability": "nonpayable",
      "type": "function"
    }
  ],
  "bytecode": "0x6080604052348015600f57600080fd5b50336000806101000a81548173ffffffffffffffffffffffffffffffffffffffff021916908373ffffffffffffffffffffffffffffffffffffffff16021790555061205d8061005f6000396000f3fe6080604052600436106100915760003560e01c806358b1f29c1161005957806358b1f29c14610194578063a7dbf936146101bd578063a9b3602b146101e6578063c6267e8514610202578063f851a4401461024657610091565b80630a5505dd146100965780633237803d146100bf57806337b6d96b146100e85780634518daa2146101255780635382a18b14610150575b600080fd5b3480156100a257600080fd5b506100bd60048036038101906100b891906114a0565b610271565b005b3480156100cb57600080fd5b506100e660048036038101906100e191906114fc565b6103dd565b005b3480156100f457600080fd5b5061010f600480360381019061010a91906114fc565b6106aa565b60405161011c9190611544565b60405180910390f35b34801561013157600080fd5b5061013a6106ca565b604051610147919061156e565b60405180910390f35b34801561015c57600080fd5b50610177600480360381019061017291906114fc565b6106d7565b60405161018b9897969594939291906116c0565b60405180910390f35b3480156101a057600080fd5b506101bb60048036038101906101b691906114fc565b610914565b005b3480156101c957600080fd5b506101e460048036038101906101df91906114a0565b610b87565b005b61020060048036038101906101fb9190611753565b610d88565b005b34801561020e57600080fd5b50610229600480360381019061022491906114fc565b61103f565b60405161023d9897969594939291906116c0565b60405180910390f35b34801561025257600080fd5b5061025b6112ec565b60405161026891906117de565b60405180910390f35b60018054905082106102b8576040517f08c379a00000000000000000000000000000000000000000000000000000000081526004016102af90611845565b60405180910390fd5b6000600183815481106102ce576102cd611865565b5b90600052602060002090600802019050600060048111156102f2576102f1611649565b5b8160050160009054906101000a900460ff16600481111561031657610315611649565b5b14610356576040517f08c379a000000000000000000000000000000000000000000000000000000000815260040161034d906118e0565b60405180910390fd5b60028160050160006101000a81548160ff0219169083600481111561037e5761037d611649565b5b0217905550818160060190816103949190611b0c565b50338160070160006101000a81548173ffffffffffffffffffffffffffffffffffffffff021916908373ffffffffffffffffffffffffffffffffffffffff160217905550505050565b60008054906101000a900473ffffffffffffffffffffffffffffffffffffffff1673ffffffffffffffffffffffffffffffffffffffff163373ffffffffffffffffffffffffffffffffffffffff161461046b576040517f08c379a000000000000000000000000000000000000000000000000000000000815260040161046290611c50565b60405180910390fd5b60018054905081106104b2576040517f08c379a00000000000000000000000000000000000000000000000000000000081526004016104a990611845565b60405180910390fd5b6000600182815481106104c8576104c7611865565b5b90600052602060002090600802019050600160048111156104ec576104eb611649565b5b8160050160009054906101000a900460ff1660048111156105105761050f611649565b5b14610550576040517f08c379a000000000000000000000000000000000000000000000000000000000815260040161054790611cbc565b60405180910390fd5b6002600083815260200190815260200160002060009054906101000a900460ff16156105b1576040517f08c379a00000000000000000000000000000000000000000000000000000000081526004016105a890611d28565b60405180910390fd5b60016002600084815260200190815260200160002060006101000a81548160ff02191690831515021790555060038160050160006101000a81548160ff0219169083600481111561060557610604611649565b5b02179055508060070160009054906101000a900473ffffffffffffffffffffffffffffffffffffffff1673ffffffffffffffffffffffffffffffffffffffff166108fc82600301549081150290604051600060405180830381858888f19350505050158015610678573d6000803e3d6000fd5b50817fde21642afd3669fe0a3f38cffb6cfb17bbbd177cd841dbaef745916966204be860405160405180910390a25050565b60026020528060005260406000206000915054906101000a900460ff1681565b6000600180549050905090565b600181815481106106e757600080fd5b90600052602060002090600802016000915090508060000160009054906101000a900473ffffffffffffffffffffffffffffffffffffffff16908060010180546107309061192f565b80601f016020809104026020016040519081016040528092919081815260200182805461075c9061192f565b80156107a95780601f1061077e576101008083540402835291602001916107a9565b820191906000526020600020905b81548152906001019060200180831161078c57829003601f168201915b5050505050908060020180546107be9061192f565b80601f01602080910402602001604051908101604052809291908181526020018280546107ea9061192f565b80156108375780601f1061080c57610100808354040283529160200191610837565b820191906000526020600020905b81548152906001019060200180831161081a57829003601f168201915b5050505050908060030154908060040154908060050160009054906101000a900460ff169080600601805461086b9061192f565b80601f01602080910402602001604051908101604052809291908181526020018280546108979061192f565b80156108e45780601f106108b9576101008083540402835291602001916108e4565b820191906000526020600020905b8154815290600101906020018083116108c757829003601f168201915b5050505050908060070160009054906101000a900473ffffffffffffffffffffffffffffffffffffffff16905088565b600180549050811061095b576040517f08c379a000000000000000000000000000000000000000000000000000000000815260040161095290611845565b60405180910390fd5b60006001828154811061097157610970611865565b5b906000526020600020906008020190506000600481111561099557610994611649565b5b8160050160009054906101000a900460ff1660048111156109b9576109b8611649565b5b14806109fa5750600260048111156109d4576109d3611649565b5b8160050160009054906101000a900460ff1660048111156109f8576109f7611649565b5b145b610a39576040517f08c379a0000000000000000000000000000000000000000000000000000000008152600401610a3090611d94565b60405180910390fd5b80600401544211610a7f576040517f08c379a0000000000000000000000000000000000000000000000000000000008152600401610a7690611e00565b60405180910390fd5b60048160050160006101000a81548160ff02191690836004811115610aa757610aa6611649565b5b02179055508060000160009054906101000a900473ffffffffffffffffffffffffffffffffffffffff1673ffffffffffffffffffffffffffffffffffffffff166108fc82600301549081150290604051600060405180830381858888f19350505050158015610b1a573d6000803e3d6000fd5b508060000160009054906101000a900473ffffffffffffffffffffffffffffffffffffffff1673ffffffffffffffffffffffffffffffffffffffff16827f793d57cda20371b997a6e344dcbdb2f70aabe664305b007684db0da7acd354d160405160405180910390a35050565b6001805490508210610bce576040517f08c379a0000000000000000000000000000000000000000000000000000000008152600401610bc590611845565b60405180910390fd5b600060018381548110610be457610be3611865565b5b9060005260206000209060080201905060006004811115610c0857610c07611649565b5b8160050160009054906101000a900460ff166004811115610c2c57610c2b611649565b5b14610c6c576040517f08c379a0000000000000000000000000000000000000000000000000000000008152600401610c63906118e0565b60405180910390fd5b80600401544210610cb2576040517f08c379a0000000000000000000000000000000000000000000000000000000008152600401610ca990611e6c565b60405180910390fd5b60018160050160006101000a81548160ff02191690836004811115610cda57610cd9611649565b5b021790555081816006019081610cf09190611b0c565b50338160070160006101000a81548173ffffffffffffffffffffffffffffffffffffffff021916908373ffffffffffffffffffffffffffffffffffffffff1602179055503373ffffffffffffffffffffffffffffffffffffffff16837f29d69d5158cbec737f09022d196acd4020b84a37227f9c67fd52333a05da979a84604051610d7b9190611e8c565b60405180910390a3505050565b60003411610dcb576040517f08c379a0000000000000000000000000000000000000000000000000000000008152600401610dc290611efa565b60405180910390fd5b428111610e0d576040517f08c379a0000000000000000000000000000000000000000000000000000000008152600401610e0490611f66565b60405180910390fd5b60016040518061010001604052803373ffffffffffffffffffffffffffffffffffffffff16815260200185815260200184815260200134815260200183815260200160006004811115610e6357610e62611649565b5b8152602001604051806020016040528060008152508152602001600073ffffffffffffffffffffffffffffffffffffffff16815250908060018154018082558091505060019003906000526020600020906008020160009091909190915060008201518160000160006101000a81548173ffffffffffffffffffffffffffffffffffffffff021916908373ffffffffffffffffffffffffffffffffffffffff1602179055506020820151816001019081610f1d9190611b0c565b506040820151816002019081610f339190611b0c565b50606082015181600301556080820151816004015560a08201518160050160006101000a81548160ff02191690836004811115610f7357610f72611649565b5b021790555060c0820151816006019081610f8d9190611b0c565b5060e08201518160070160006101000a81548173ffffffffffffffffffffffffffffffffffffffff021916908373ffffffffffffffffffffffffffffffffffffffff16021790555050503373ffffffffffffffffffffffffffffffffffffffff1660018080549050610fff9190611fb5565b7fdc31214446fa627a0b6f66e573239254640d79e99dca7e7d37fd1850c36ccd6b85348560405161103293929190611fe9565b60405180910390a3505050565b60006060806000806000606060006001805490508910611094576040517f08c379a000000000000000000000000000000000000000000000000000000000815260040161108b90611845565b60405180910390fd5b600060018a815481106110aa576110a9611865565b5b906000526020600020906008020190508060000160009054906101000a900473ffffffffffffffffffffffffffffffffffffffff168160010182600201836003015484600401548560050160009054906101000a900460ff16866006018760070160009054906101000a900473ffffffffffffffffffffffffffffffffffffffff168680546111389061192f565b80601f01602080910402602001604051908101604052809291908181526020018280546111649061192f565b80156111b15780601f10611186576101008083540402835291602001916111b1565b820191906000526020600020905b81548152906001019060200180831161119457829003601f168201915b505050505096508580546111c49061192f565b80601f01602080910402602001604051908101604052809291908181526020018280546111f09061192f565b801561123d5780601f106112125761010080835404028352916020019161123d565b820191906000526020600020905b81548152906001019060200180831161122057829003601f168201915b505050505095508180546112509061192f565b80601f016020809104026020016040519081016040528092919081815260200182805461127c9061192f565b80156112c95780601f1061129e576101008083540402835291602001916112c9565b820191906000526020600020905b8154815290600101906020018083116112ac57829003601f168201915b505050505091509850985098509850985098509850985050919395975091939597565b60008054906101000a900473ffffffffffffffffffffffffffffffffffffffff1681565b6000604051905090565b600080fd5b600080fd5b6000819050919050565b61133781611324565b811461134257600080fd5b50565b6000813590506113548161132e565b92915050565b600080fd5b600080fd5b6000601f19601f8301169050919050565b7f4e487b7100000000000000000000000000000000000000000000000000000000600052604160045260246000fd5b6113ad82611364565b810181811067ffffffffffffffff821117156113cc576113cb611375565b5b80604052505050565b60006113df611310565b90506113eb82826113a4565b919050565b600067ffffffffffffffff82111561140b5761140a611375565b5b61141482611364565b9050602081019050919050565b82818337600083830152505050565b600061144361143e846113f0565b6113d5565b90508281526020810184848401111561145f5761145e61135f565b5b61146a848285611421565b509392505050565b600082601f8301126114875761148661135a565b5b8135611497848260208601611430565b91505092915050565b600080604083850312156114b7576114b661131a565b5b60006114c585828601611345565b925050602083013567ffffffffffffffff8111156114e6576114e561131f565b5b6114f285828601611472565b9150509250929050565b6000602082840312156115125761151161131a565b5b600061152084828501611345565b91505092915050565b60008115159050919050565b61153e81611529565b82525050565b60006020820190506115596000830184611535565b92915050565b61156881611324565b82525050565b6000602082019050611583600083018461155f565b92915050565b600073ffffffffffffffffffffffffffffffffffffffff82169050919050565b60006115b482611589565b9050919050565b6115c4816115a9565b82525050565b600081519050919050565b600082825260208201905092915050565b60005b838110156116045780820151818401526020810190506115e9565b60008484015250505050565b600061161b826115ca565b61162581856115d5565b93506116358185602086016115e6565b61163e81611364565b840191505092915050565b7f4e487b7100000000000000000000000000000000000000000000000000000000600052602160045260246000fd5b6005811061168957611688611649565b5b50565b600081905061169a82611678565b919050565b60006116aa8261168c565b9050919050565b6116ba8161169f565b82525050565b6000610100820190506116d6600083018b6115bb565b81810360208301526116e8818a611610565b905081810360408301526116fc8189611610565b905061170b606083018861155f565b611718608083018761155f565b61172560a08301866116b1565b81810360c08301526117378185611610565b905061174660e08301846115bb565b9998505050505050505050565b60008060006060848603121561176c5761176b61131a565b5b600084013567ffffffffffffffff81111561178a5761178961131f565b5b61179686828701611472565b935050602084013567ffffffffffffffff8111156117b7576117b661131f565b5b6117c386828701611472565b92505060406117d486828701611345565b9150509250925092565b60006020820190506117f360008301846115bb565b92915050565b7f496e76616c696420525449204944000000000000000000000000000000000000600082015250565b600061182f600e836115d5565b915061183a826117f9565b602082019050919050565b6000602082019050818103600083015261185e81611822565b9050919050565b7f4e487b7100000000000000000000000000000000000000000000000000000000600052603260045260246000fd5b7f52544920616c72656164792070726f6365737365640000000000000000000000600082015250565b60006118ca6015836115d5565b91506118d582611894565b602082019050919050565b600060208201905081810360008301526118f9816118bd565b9050919050565b7f4e487b7100000000000000000000000000000000000000000000000000000000600052602260045260246000fd5b6000600282049050600182168061194757607f821691505b60208210810361195a57611959611900565b5b50919050565b60008190508160005260206000209050919050565b60006020601f8301049050919050565b600082821b905092915050565b6000600883026119c27fffffffffffffffffffffffffffffffffffffffffffffffffffffffffffffffff82611985565b6119cc8683611985565b95508019841693508086168417925050509392505050565b6000819050919050565b6000611a09611a046119ff84611324565b6119e4565b611324565b9050919050565b6000819050919050565b611a23836119ee565b611a37611a2f82611a10565b848454611992565b825550505050565b600090565b611a4c611a3f565b611a57818484611a1a565b505050565b5b81811015611a7b57611a70600082611a44565b600181019050611a5d565b5050565b601f821115611ac057611a9181611960565b611a9a84611975565b81016020851015611aa9578190505b611abd611ab585611975565b830182611a5c565b50505b505050565b600082821c905092915050565b6000611ae360001984600802611ac5565b1980831691505092915050565b6000611afc8383611ad2565b9150826002028217905092915050565b611b15826115ca565b67ffffffffffffffff811115611b2e57611b2d611375565b5b611b38825461192f565b611b43828285611a7f565b600060209050601f831160018114611b765760008415611b64578287015190505b611b6e8582611af0565b865550611bd6565b601f198416611b8486611960565b60005b82811015611bac57848901518255600182019150602085019450602081019050611b87565b86831015611bc95784890151611bc5601f891682611ad2565b8355505b6001600288020188555050505b505050505050565b7f4f6e6c792061646d696e2063616e20706572666f726d2074686973206163746960008201527f6f6e000000000000000000000000000000000000000000000000000000000000602082015250565b6000611c3a6022836115d5565b9150611c4582611bde565b604082019050919050565b60006020820190508181036000830152611c6981611c2d565b9050919050565b7f525449206e6f7420726573706f6e646564207965740000000000000000000000600082015250565b6000611ca66015836115d5565b9150611cb182611c70565b602082019050919050565b60006020820190508181036000830152611cd581611c99565b9050919050565b7f416c726561647920766572696669656400000000000000000000000000000000600082015250565b6000611d126010836115d5565b9150611d1d82611cdc565b602082019050919050565b60006020820190508181036000830152611d4181611d05565b9050919050565b7f43616e6e6f7420726566756e642070726f636573736564205254490000000000600082015250565b6000611d7e601b836115d5565b9150611d8982611d48565b602082019050919050565b60006020820190508181036000830152611dad81611d71565b9050919050565b7f446561646c696e65206e6f742079657420706173736564000000000000000000600082015250565b6000611dea6017836115d5565b9150611df582611db4565b602082019050919050565b60006020820190508181036000830152611e1981611ddd565b9050919050565b7f446561646c696e65206861732070617373656400000000000000000000000000600082015250565b6000611e566013836115d5565b9150611e6182611e20565b602082019050919050565b60006020820190508181036000830152611e8581611e49565b9050919050565b60006020820190508181036000830152611ea68184611610565b905092915050565b7f426f756e7479206d7573742062652067726561746572207468616e2030000000600082015250565b6000611ee4601d836115d5565b9150611eef82611eae565b602082019050919050565b60006020820190508181036000830152611f1381611ed7565b9050919050565b7f446561646c696e65206d75737420626520696e20746865206675747572650000600082015250565b6000611f50601e836115d5565b9150611f5b82611f1a565b602082019050919050565b60006020820190508181036000830152611f7f81611f43565b9050919050565b7f4e487b7100000000000000000000000000000000000000000000000000000000600052601160045260246000fd5b6000611fc082611324565b9150611fcb83611324565b9250828203905081811115611fe357611fe2611f86565b5b92915050565b600060608201905081810360008301526120038186611610565b9050612012602083018561155f565b61201f604083018461155f565b94935050505056fea264697066735822122080e34e05d4137503dea9e6e450775ce36eec9f7675618f742f9c0f7b198611c164736f6c634300081c0033",
  "linkReferences": {},
  "deployedLinkReferences": {}
}