{
  "_format": "hh-sol-artifact-1",
  "contractName": "RTICore",
  "sourceName": "contracts/RTICore.sol",
  "abi": [
    {
      "anonymous": false,
      "inputs": [
        {
          "indexed": true,
          "internalType": "uint256",
          "name": "requestId",
          "type": "uint256"
        },
        {
          "indexed": true,
          "internalType": "address",
          "name": "requester",
          "type": "address"
        },
        {
          "indexed": false,
          "internalType": "string",
          "name": "department",
          "type": "string"
        }
      ],
      "name": "RequestCreated",
      "type": "event"
    },
    {
      "anonymous": false,
      "inputs": [
        {
          "indexed": true,
          "internalType": "uint256",
          "name": "requestId",
          "type": "uint256"
        },
        {
          "indexed": false,
          "internalType": "string",
          "name": "responseCID",
          "type": "string"
        }
      ],
      "name": "RequestFulfilled",
      "type": "event"
    },
    {
      "inputs": [
        {
          "internalType": "string",
          "name": "_department",
          "type": "string"
        },
        {
          "internalType": "string",
          "name": "_query",
          "type": "string"
        },
        {
          "internalType": "uint256",
          "name": "_daysToRespond",
          "type": "uint256"
        }
      ],
      "name": "createRequest",
      "outputs": [],
      "stateMutability": "payable",
      "type": "function"
    },
    {
      "inputs": [
        {
          "internalType": "uint256",
          "name": "_requestId",
          "type": "uint256"
        },
        {
          "internalType": "string",
          "name": "_responseCID",
          "type": "string"
        }
      ],
      "name": "fulfillRequest",
      "outputs": [],
      "stateMutability": "nonpayable",
      "type": "function"
    },
    {
      "inputs": [],
      "name": "requestCount",
      "outputs": [
        {
          "internalType": "uint256",
          "name": "",
          "type": "uint256"
        }
      ],
      "stateMutability": "view",
      "type": "function"
    },
    {
      "inputs": [
        {
          "internalType": "uint256",
          "name": "",
          "type": "uint256"
        }
      ],
      "name": "requests",
      "outputs": [
        {
          "internalType": "address",
          "name": "requester",
          "type": "address"
        },
        {
          "internalType": "string",
          "name": "department",
          "type": "string"
        },
        {
          "internalType": "string",
          "name": "query",
          "type": "string"
        },
        {
          "internalType": "uint256",
          "name": "bounty",
          "type": "uint256"
        },
        {
          "internalType": "uint256",
          "name": "deadline",
          "type": "uint256"
        },
        {
          "internalType": "enum RTICore.RequestStatus",
          "name": "status",
          "type": "uint8"
        },
        {
          "internalType": "string",
          "name": "responseCID",
          "type": "string"
        }
      ],
      "stateMutability": "view",
      "type": "function"
    }
  ],
  "bytecode": "0x6080604052348015600f57600080fd5b506001600081905550611180806100276000396000f3fe60806040526004361061003f5760003560e01c806323fe79b8146100445780635badbe4c1461006057806381d12c581461008b578063d99ae7eb146100ce575b600080fd5b61005e600480360381019061005991906108b4565b6100f7565b005b34801561006c57600080fd5b50610075610311565b604051610082919061094e565b60405180910390f35b34801561009757600080fd5b506100b260048036038101906100ad9190610969565b610317565b6040516100c59796959493929190610acd565b60405180910390f35b3480156100da57600080fd5b506100f560048036038101906100f09190610b51565b61051e565b005b6000341161013a576040517f08c379a000000000000000000000000000000000000000000000000000000000815260040161013190610bf9565b60405180910390fd5b6040518060e001604052803373ffffffffffffffffffffffffffffffffffffffff16815260200184815260200183815260200134815260200162015180836101829190610c48565b4261018d9190610c8a565b8152602001600060028111156101a6576101a5610a56565b5b81526020016040518060200160405280600081525081525060026000600154815260200190815260200160002060008201518160000160006101000a81548173ffffffffffffffffffffffffffffffffffffffff021916908373ffffffffffffffffffffffffffffffffffffffff160217905550602082015181600101908161022f9190610eca565b5060408201518160020190816102459190610eca565b50606082015181600301556080820151816004015560a08201518160050160006101000a81548160ff0219169083600281111561028557610284610a56565b5b021790555060c082015181600601908161029f9190610eca565b509050503373ffffffffffffffffffffffffffffffffffffffff166001547f98211bd435874dca36f94fe4bd56dc2d934b75c5c6bcab9f7e7b079addc48b4e856040516102ec9190610f9c565b60405180910390a36001600081548092919061030790610fbe565b9190505550505050565b60015481565b60026020528060005260406000206000915090508060000160009054906101000a900473ffffffffffffffffffffffffffffffffffffffff169080600101805461036090610ced565b80601f016020809104026020016040519081016040528092919081815260200182805461038c90610ced565b80156103d95780601f106103ae576101008083540402835291602001916103d9565b820191906000526020600020905b8154815290600101906020018083116103bc57829003601f168201915b5050505050908060020180546103ee90610ced565b80601f016020809104026020016040519081016040528092919081815260200182805461041a90610ced565b80156104675780601f1061043c57610100808354040283529160200191610467565b820191906000526020600020905b81548152906001019060200180831161044a57829003601f168201915b5050505050908060030154908060040154908060050160009054906101000a900460ff169080600601805461049b90610ced565b80601f01602080910402602001604051908101604052809291908181526020018280546104c790610ced565b80156105145780601f106104e957610100808354040283529160200191610514565b820191906000526020600020905b8154815290600101906020018083116104f757829003601f168201915b5050505050905087565b6105266106cb565b60006002600084815260200190815260200160002090506000600281111561055157610550610a56565b5b8160050160009054906101000a900460ff16600281111561057557610574610a56565b5b146105b5576040517f08c379a00000000000000000000000000000000000000000000000000000000081526004016105ac90611052565b60405180910390fd5b80600401544211156105fc576040517f08c379a00000000000000000000000000000000000000000000000000000000081526004016105f3906110be565b60405180910390fd5b60018160050160006101000a81548160ff0219169083600281111561062457610623610a56565b5b02179055508181600601908161063a9190610eca565b503373ffffffffffffffffffffffffffffffffffffffff166108fc82600301549081150290604051600060405180830381858888f19350505050158015610685573d6000803e3d6000fd5b50827f0c7507c04d6afaf2236e3aa588594258f69742d49a2f114ab1d9fbe200e18afd836040516106b69190610f9c565b60405180910390a2506106c761071a565b5050565b600260005403610710576040517f08c379a00000000000000000000000000000000000000000000000000000000081526004016107079061112a565b60405180910390fd5b6002600081905550565b6001600081905550565b6000604051905090565b600080fd5b600080fd5b600080fd5b600080fd5b6000601f19601f8301169050919050565b7f4e487b7100000000000000000000000000000000000000000000000000000000600052604160045260246000fd5b61078b82610742565b810181811067ffffffffffffffff821117156107aa576107a9610753565b5b80604052505050565b60006107bd610724565b90506107c98282610782565b919050565b600067ffffffffffffffff8211156107e9576107e8610753565b5b6107f282610742565b9050602081019050919050565b82818337600083830152505050565b600061082161081c846107ce565b6107b3565b90508281526020810184848401111561083d5761083c61073d565b5b6108488482856107ff565b509392505050565b600082601f83011261086557610864610738565b5b813561087584826020860161080e565b91505092915050565b6000819050919050565b6108918161087e565b811461089c57600080fd5b50565b6000813590506108ae81610888565b92915050565b6000806000606084860312156108cd576108cc61072e565b5b600084013567ffffffffffffffff8111156108eb576108ea610733565b5b6108f786828701610850565b935050602084013567ffffffffffffffff81111561091857610917610733565b5b61092486828701610850565b92505060406109358682870161089f565b9150509250925092565b6109488161087e565b82525050565b6000602082019050610963600083018461093f565b92915050565b60006020828403121561097f5761097e61072e565b5b600061098d8482850161089f565b91505092915050565b600073ffffffffffffffffffffffffffffffffffffffff82169050919050565b60006109c182610996565b9050919050565b6109d1816109b6565b82525050565b600081519050919050565b600082825260208201905092915050565b60005b83811015610a115780820151818401526020810190506109f6565b60008484015250505050565b6000610a28826109d7565b610a3281856109e2565b9350610a428185602086016109f3565b610a4b81610742565b840191505092915050565b7f4e487b7100000000000000000000000000000000000000000000000000000000600052602160045260246000fd5b60038110610a9657610a95610a56565b5b50565b6000819050610aa782610a85565b919050565b6000610ab782610a99565b9050919050565b610ac781610aac565b82525050565b600060e082019050610ae2600083018a6109c8565b8181036020830152610af48189610a1d565b90508181036040830152610b088188610a1d565b9050610b17606083018761093f565b610b24608083018661093f565b610b3160a0830185610abe565b81810360c0830152610b438184610a1d565b905098975050505050505050565b60008060408385031215610b6857610b6761072e565b5b6000610b768582860161089f565b925050602083013567ffffffffffffffff811115610b9757610b96610733565b5b610ba385828601610850565b9150509250929050565b7f426f756e7479206d7573742062652067726561746572207468616e2030000000600082015250565b6000610be3601d836109e2565b9150610bee82610bad565b602082019050919050565b60006020820190508181036000830152610c1281610bd6565b9050919050565b7f4e487b7100000000000000000000000000000000000000000000000000000000600052601160045260246000fd5b6000610c538261087e565b9150610c5e8361087e565b9250828202610c6c8161087e565b91508282048414831517610c8357610c82610c19565b5b5092915050565b6000610c958261087e565b9150610ca08361087e565b9250828201905080821115610cb857610cb7610c19565b5b92915050565b7f4e487b7100000000000000000000000000000000000000000000000000000000600052602260045260246000fd5b60006002820490506001821680610d0557607f821691505b602082108103610d1857610d17610cbe565b5b50919050565b60008190508160005260206000209050919050565b60006020601f8301049050919050565b600082821b905092915050565b600060088302610d807fffffffffffffffffffffffffffffffffffffffffffffffffffffffffffffffff82610d43565b610d8a8683610d43565b95508019841693508086168417925050509392505050565b6000819050919050565b6000610dc7610dc2610dbd8461087e565b610da2565b61087e565b9050919050565b6000819050919050565b610de183610dac565b610df5610ded82610dce565b848454610d50565b825550505050565b600090565b610e0a610dfd565b610e15818484610dd8565b505050565b5b81811015610e3957610e2e600082610e02565b600181019050610e1b565b5050565b601f821115610e7e57610e4f81610d1e565b610e5884610d33565b81016020851015610e67578190505b610e7b610e7385610d33565b830182610e1a565b50505b505050565b600082821c905092915050565b6000610ea160001984600802610e83565b1980831691505092915050565b6000610eba8383610e90565b9150826002028217905092915050565b610ed3826109d7565b67ffffffffffffffff811115610eec57610eeb610753565b5b610ef68254610ced565b610f01828285610e3d565b600060209050601f831160018114610f345760008415610f22578287015190505b610f2c8582610eae565b865550610f94565b601f198416610f4286610d1e565b60005b82811015610f6a57848901518255600182019150602085019450602081019050610f45565b86831015610f875784890151610f83601f891682610e90565b8355505b6001600288020188555050505b505050505050565b60006020820190508181036000830152610fb68184610a1d565b905092915050565b6000610fc98261087e565b91507fffffffffffffffffffffffffffffffffffffffffffffffffffffffffffffffff8203610ffb57610ffa610c19565b5b600182019050919050565b7f52657175657374206e6f742070656e64696e6700000000000000000000000000600082015250565b600061103c6013836109e2565b915061104782611006565b602082019050919050565b6000602082019050818103600083015261106b8161102f565b9050919050565b7f446561646c696e65207061737365640000000000000000000000000000000000600082015250565b60006110a8600f836109e2565b91506110b382611072565b602082019050919050565b600060208201905081810360008301526110d78161109b565b9050919050565b7f5265656e7472616e637947756172643a207265656e7472616e742063616c6c00600082015250565b6000611114601f836109e2565b915061111f826110de565b602082019050919050565b6000602082019050818103600083015261114381611107565b905091905056fea2646970667358221220f7153459bcf8fbff57491334f62f1da8f0eee57ccd3ffd67cb051c7fa22bc4cb64736f6c634300081c0033",
  "linkReferences": {},
  "deployedLinkReferences": {}
}